:020000040800F2
:100000000000022055260008F5230008FD23000803
:10001000052400080D240008152400080000000035
:100020000000000000000000000000001D24000887
:100030002B24000800000000392400084724000891
:10004000A5260008A5260008A5260008A526000864
:10005000A5260008A5260008A5260008A526000854
:10006000A5260008A5260008A5260008A526000844
:10007000A5260008A5260008A5260008A526000834
:10008000A5260008A5260008A5260008A526000824
:10009000A5260008A5260008A5260008A526000814
:1000A000A5260008A5260008A5260008A526000804
:1000B000A5260008A5260008A5260008A5260008F4
:1000C000A5260008A5260008A52600085524000836
:1000D000A526000869240008A5260008A526000812
:1000E000A5260008A5260008A5260008A5260008C4
:1000F000A5260008A5260008A5260008A5260008B4
:10010000A5260008A5260008A5260008A5260008A3
:10011000A5260008A5260008A5260008A526000893
:10012000A5260008A52600087D24000891240008C3
:10013000A5260008A5260008A5260008A526000873
:10014000A5260008A5260008A5260008A526000863
:10015000A5260008A5260008A5260008A526000853
:10016000A5260008A5260008A5260008A526000843
:10017000A5260008A5260008A52600080000000006
:08018000A5260008A5260008D1
:1001900010B5054C237833B9044B13B10448AFF3C1
:1001A00000800123237010BDDC010020000000004E
:1001B0005CA7000808B5034B1BB103490348AFF324
:1001C000008008BD00000000E00100205CA70008DE
:1001D00001F0FF01102A2BDB10F0070F08D010F8F8
:1001E000013B013A8B422DD010F0070F42B3F6D1FC
:1001F000F0B441EA012141EA014122F007047FF015
:1002000000070023F0E80256083C85EA010586EA6B
:10021000010685FA47F5A3FA87F586FA47F6A5FAA7
:1002200087F68EB9EED1F0BC01F0FF0102F00702B3
:1002300032B110F8013B013A83EA010313B1F8D15E
:100240000020704701387047002D06BF354603383F
:10025000073815F0010F07D1013015F4807F02BF78
:10026000013015F4C03F0130F0BC0138704700BFC9
:10027000034613F8012B002AFBD1181A01387047E6
:1002800081F0004102E000BF83F0004330B54FEA47
:1002900041044FEA430594EA050F08BF90EA020FB4
:1002A0001FBF54EA000C55EA020C7FEA645C7FEA47
:1002B000655C00F0E2804FEA5454D4EB5555B8BF6A
:1002C0006D420CDD2C4480EA020281EA030382EADB
:1002D000000083EA010180EA020281EA0303362D6D
:1002E00088BF30BD11F0004F4FEA01314FF4801C40
:1002F0004CEA113102D0404261EB410113F0004F52
:100300004FEA03334CEA133302D0524263EB430308
:1003100094EA050F00F0A780A4F10104D5F1200EA6
:100320000DDB02FA0EFC22FA05F2801841F1000101
:1003300003FA0EF2801843FA05F359410EE0A5F1D5
:1003400020050EF1200E012A03FA0EFC28BF4CF006
:10035000020C43FA05F3C01851EBE37101F00045BC
:1003600007D54FF0000EDCF1000C7EEB00006EEBC9
:100370000101B1F5801F1BD3B1F5001F0CD3490853
:100380005FEA30004FEA3C0C04F101044FEA4452AA
:1003900012F5800F80F09A80BCF1004F08BF5FEA31
:1003A000500C50F1000041EB045141EA050130BD11
:1003B0005FEA4C0C404141EB0101013C28BFB1F523
:1003C000801FE9D291F0000F04BF01460020B1FA6E
:1003D00081F308BF2033A3F10B03B3F120020CDA41
:1003E0000C3208DD02F1140CC2F10C0201FA0CF01F
:1003F00021FA02F10CE002F11402D8BFC2F1200C84
:1004000001FA02F120FA0CFCDCBF41EA0C01904039
:10041000E41AA2BF01EB0451294330BD6FEA040482
:100420001F3C1CDA0C340EDC04F11404C4F120026D
:1004300020FA04F001FA02F340EA030021FA04F37F
:1004400045EA030130BDC4F10C04C4F1200220FAD6
:1004500002F001FA04F340EA0300294630BD21FA14
:1004600004F0294630BD94F0000F83F4801306BFDA
:1004700081F480110134013D4EE77FEA645C18BFCE
:100480007FEA655C29D094EA050F08BF90EA020F65
:1004900005D054EA000C04BF1946104630BD91EA5D
:1004A000030F1EBF0021002030BD5FEA545C05D160
:1004B0004000494128BF41F0004130BD14F580049F
:1004C0003CBF01F5801130BD01F0004545F0FE4113
:1004D00041F470014FF0000030BD7FEA645C1ABF48
:1004E000194610467FEA655C1CBF0B46024650EA7F
:1004F000013406BF52EA033591EA030F41F40021AB
:1005000030BD00BF90F0000F04BF0021704730B530
:100510004FF4806404F132044FF000054FF0000105
:1005200050E700BF90F0000F04BF0021704730B5C6
:100530004FF4806404F1320410F0004548BF40429B
:100540004FF000013EE700BF42004FEAE2014FEAF0
:1005500031014FEA02701FBF12F07F4393F07F4FCB
:1005600081F06051704732F07F4208BF704793F0CE
:100570007F4F04BF41F40021704730B54FF46074E1
:1005800001F0004521F000411CE700BF50EA0102E4
:1005900008BF704730B54FF000050AE050EA01028D
:1005A00008BF704730B511F0004502D5404261EBFD
:1005B00041014FF4806404F132045FEA915C3FF43E
:1005C000D8AE4FF003025FEADC0C18BF03325FEADB
:1005D000DC0C18BF033202EBDC02C2F1200300FA8C
:1005E00003FC20FA02F001FA03FE40EA0E0021FAB1
:1005F00002F11444BDE600BF70B54FF0FF0C4CF49F
:10060000E06C1CEA11541DBF1CEA135594EA0C0F50
:1006100095EA0C0F00F0DEF82C4481EA030621EA8B
:100620004C5123EA4C5350EA013518BF52EA0335C6
:1006300041F4801143F4801338D0A0FB02CE4FF078
:100640000005E1FB02E506F00042E0FB03E54FF0A8
:100650000006E1FB03569CF0000F18BF4EF0010EA0
:10066000A4F1FF04B6F5007F64F5407404D25FEA9C
:100670004E0E6D4146EB060642EAC62141EA55514F
:100680004FEAC52040EA5E504FEACE2EB4F1FD0C91
:1006900088BFBCF5E06F1ED8BEF1004F08BF5FEA0F
:1006A000500E50F1000041EB045170BD06F00046C1
:1006B00046EA010140EA020081EA0301B4EB5C046E
:1006C000C2BFD4EB0C0541EA045170BD41F4801166
:1006D0004FF0000E013C00F3AB8014F1360FDEBF8B
:1006E000002001F0004170BDC4F10004203C35DA67
:1006F0000C341BDC04F11404C4F1200500FA05F3EA
:1007000020FA04F001FA05F240EA020001F000428A
:1007100021F0004110EBD37021FA04F642EB060100
:100720005EEA430E08BF20EAD37070BDC4F10C042A
:10073000C4F1200500FA04F320FA05F001FA04F2EE
:1007400040EA020001F0004110EBD37041F10001DA
:100750005EEA430E08BF20EAD37070BDC4F12005E5
:1007600000FA05F24EEA020E20FA04F301FA05F24D
:1007700043EA020321FA04F001F0004121FA04F2F5
:1007800020EA020000EBD3705EEA430E08BF20EAC5
:10079000D37070BD94F0000F0FD101F000464000FF
:1007A00041EB010111F4801F08BF013CF7D041EA81
:1007B000060195F0000F18BF704703F00046520085
:1007C00043EB030313F4801F08BF013DF7D043EA56
:1007D0000603704794EA0C0F0CEA135518BF95EA0C
:1007E0000C0F0CD050EA410618BF52EA4306D1D193
:1007F00081EA030101F000414FF0000070BD50EAB2
:10080000410606BF1046194652EA430619D094EA3B
:100810000C0F02D150EA013613D195EA0C0F05D125
:1008200052EA03361CBF104619460AD181EA030179
:1008300001F0004141F0FE4141F470014FF0000031
:1008400070BD41F0FE4141F4780170BD70B54FF0CC
:10085000FF0C4CF4E06C1CEA11541DBF1CEA13554C
:1008600094EA0C0F95EA0C0F00F0A7F8A4EB05042E
:1008700081EA030E52EA03354FEA013100F0888025
:100880004FEA03334FF0805545EA131343EA1263EE
:100890004FEA022245EA111545EA10654FEA0026A3
:1008A0000EF000419D4208BF964244F1FD0404F55C
:1008B000407402D25B084FEA3202B61A65EB0305B8
:1008C0005B084FEA32024FF480104FF4002CB6EB75
:1008D000020E75EB030E22BFB61A754640EA0C00F5
:1008E0005B084FEA3202B6EB020E75EB030E22BF35
:1008F000B61A754640EA5C005B084FEA3202B6EB76
:10090000020E75EB030E22BFB61A754640EA9C0034
:100910005B084FEA3202B6EB020E75EB030E22BF04
:10092000B61A754640EADC0055EA060E18D04FEAC2
:10093000051545EA16754FEA06164FEAC30343EA62
:1009400052734FEAC2025FEA1C1CC0D111F4801F2F
:100950000BD141EA00014FF000004FF0004CB6E728
:1009600011F4801F04BF01430020B4F1FD0C88BFC7
:10097000BCF5E06F3FF6AFAEB5EB030C04BFB6EBD2
:10098000020C5FEA500C50F1000041EB045170BDC5
:100990000EF0004E4EEA113114EB5C04C2BFD4EBF2
:1009A0000C0541EA045170BD41F480114FF0000E76
:1009B000013C90E645EA060E8DE60CEA135594EAF2
:1009C0000C0F08BF95EA0C0F3FF43BAF94EA0C0FF5
:1009D0000AD150EA01347FF434AF95EA0C0F7FF46A
:1009E00025AF104619462CE795EA0C0F06D152EABE
:1009F00003353FF4FDAE1046194622E750EA4106A2
:100A000018BF52EA43067FF4C5AE50EA41047FF4B2
:100A10000DAF52EA43057FF4EBAE12E74FF0FF3C17
:100A200006E000BF4FF0010C02E000BF4FF0010CE8
:100A30004DF804CD4FEA410C7FEA6C5C4FEA430C61
:100A400018BF7FEA6C5C1BD001B050EA410C0CBFB0
:100A500052EA430C91EA030F02BF90EA020F002012
:100A6000704710F1000F91EA030F58BF994208BF79
:100A700090422CBFD8176FEAE37040F00100704736
:100A80004FEA410C7FEA6C5C02D150EA013C07D18D
:100A90004FEA430C7FEA6C5CD6D152EA033CD3D0D8
:100AA0005DF8040B704700BF8446104662468C46D2
:100AB0001946634600E000BF01B5FFF7B7FF002805
:100AC00048BF10F1000F01BD4DF808EDFFF7F4FF2E
:100AD0000CBF012000205DF808FB00BF4DF808EDB9
:100AE000FFF7EAFF34BF012000205DF808FB00BFDC
:100AF0004DF808EDFFF7E0FF94BF012000205DF8FE
:100B000008FB00BF4DF808EDFFF7CEFF94BF0120B2
:100B100000205DF808FB00BF4DF808EDFFF7C4FFAB
:100B200034BF012000205DF808FB00BF4FEA410CF4
:100B30007FEA6C5C02D150EA013C0AD14FEA430CD7
:100B40007FEA6C5C02D152EA033C02D14FF0000014
:100B500070474FF0010070474FEA410212F5001252
:100B600015D211D56FF47873B3EB625212D94FEAF4
:100B7000C12343F0004343EA505311F0004F23FADE
:100B800002F018BF404270474FF00000704750EA33
:100B9000013005D111F0004008BF6FF000407047F0
:100BA0004FF00000704700BF4A0011D212F500124A
:100BB00011D20DD56FF47873B3EB62520ED44FEAB5
:100BC000C12343F0004343EA505323FA02F0704735
:100BD0004FF00000704750EA013002D14FF0FF3073
:100BE00070474FF0000070474FEA4102B2F1E04316
:100BF00024BFB3F5001CDCF1FE5C0DD901F0004C04
:100C00004FEAC0024CEA5070B2F1004F40EB830053
:100C100008BF20F00100704711F0804F21D113F17F
:100C20003872BCBF01F00040704741F480114FEAB8
:100C30005252C2F11802C2F1200C10FA0CF320FA41
:100C400002F018BF40F001004FEAC1234FEAD3235E
:100C500003FA0CFC40EA0C0023FA02F34FEA4303C8
:100C6000CCE77FEA625307D150EA01331EBF4FF051
:100C7000FE4040F44000704701F0004040F0FE406C
:100C800040F40000704700BF53B94AB9002908BFBB
:100C900000281CBF4FF0FF314FF0FF3000F0A0B92B
:100CA000ADF1080C6DE904CE00F03CF8DDF804E08D
:100CB000DDE9022304B0704738B500220023044662
:100CC0000D46FFF70BFF28B920462946BDE83840FE
:100CD00000F00AB8204605F1004100F005F8404256
:100CE00061EB410138BD00BFD0B50C4B0022064678
:100CF0000F46FFF781FCFFF757FF0446FFF702FCA2
:100D0000074B0022FFF778FC02460B463046394677
:100D1000FFF7BAFAFFF748FF2146D0BD0000F03DCB
:100D20000000F0412DE9F047089D0C46002B4ED104
:100D300094468C458646B2FA82F262D94AB1C2F133
:100D40002003914020FA03F30CFA02FC194300FA45
:100D500002FE4FEA1C471FFA8CF6B1FBF7F44FEA8C
:100D60001E4307FB141143EA014304FB06F19942B9
:100D70000AD91CEB030304F1FF3080F01281994281
:100D800040F20F81023C6344591A1FFA8EF3B1FB03
:100D9000F7F007FB101143EA014300FB06F69E4201
:100DA0000AD91CEB030300F1FF3180F0FC809E4266
:100DB00040F2F980634402389B1B40EA0440002162
:100DC0001DB1D3400022C5E90032BDE8F0878B4257
:100DD00005D90DB1C5E9000100210846F5E7B3FAD0
:100DE00083F1002946D1A34202D39042C0F0F080A3
:100DF000861A64EB03030120002DE6D0C5E90063E9
:100E0000E3E7002A40F09080A1EB0C044FEA1C4875
:100E10001FFA8CF70121B4FBF8F64FEA1E4308FBDA
:100E2000164443EA044307FB06F0984208D91CEB3A
:100E3000030306F1FF3402D2984200F2CD80264629
:100E40001C1A1FFA8EF3B4FBF8F008FB104443EAB7
:100E5000044300FB07F79F4208D91CEB030300F192
:100E6000FF3402D29F4200F2B0802046DB1B40EAF2
:100E70000640A5E7C1F120068B4022FA06F71F4382
:100E800020FA06FC04FA01F343EA0C03F44000FAEA
:100E900001F8380C4FEA1349B4FBF0FE1FFA87FC47
:100EA00000FB1E4449EA04440EFB0CF9A14502FA7A
:100EB00001F20AD93C190EF1FF3A80F08480A14575
:100EC00040F28180AEF1020E3C44A4EB09041FFA0B
:100ED00083F9B4FBF0F300FB134449EA044403FB39
:100EE0000CFCA44507D93C1903F1FF3067D2A44597
:100EF00065D9023B3C4443EA0E40A0FB0293A4EBBD
:100F00000C049C42CE469C4651D34ED055B1B8EB12
:100F10000E0364EB0C0404FA06F6CB401E43CC40EF
:100F2000C5E90064002150E7C2F1200320FA03F173
:100F30000CFA02FC24FA03F394400C434FEA1C48D9
:100F400000FA02FE1FFA8CF7B3FBF8F008FB103131
:100F5000230C43EA014300FB07F1994208D91CEB3B
:100F6000030300F1FF362CD299422AD90238634498
:100F70005B1AA4B2B3FBF8F108FB113344EA034453
:100F800001FB07F3A34208D91CEB040401F1FF366F
:100F900013D2A34211D902396444E41A41EA004150
:100FA00039E70446F0E6084606E7C845AED2B9EB95
:100FB000020E63EB070C0138A8E73146EDE7034664
:100FC00099E73046D4E7D6467FE7634402384DE7D9
:100FD0000646234608460FE7023E634430E700BF5B
:100FE000704700BF90B58DB002AFB96011461A4688
:100FF0000346FB730B46BB811346FB80FB7B1E2B1A
:1010000064D997F90F30002B60DBBB681B78FB7746
:10101000BB6801331B78BB77BB6802331B787B77D7
:10102000BB6803331B783B77FB7B203BFA7F02FBDB
:1010300003F30433BA681344BB61BB7F9AB27B7F6E
:101040009CB2F988B889BB8F0093234600F024FC3A
:1010500000237B6235E000233B622BE03B7F3A6A52
:1010600003FB02F27B6ADB1003F01F03134401331E
:10107000BA6913441B78FB757B6A03F007030122EE
:1010800002FA03F3BB75FA7DBB7D1340DBB2002B84
:101090000DD03B6A9AB2BB89134498B27B6A9AB26C
:1010A000FB8813449BB23A8F194600F08FFB3B6AD2
:1010B00001333B62BB7F3A6A9A42CFDB7B6A0133E2
:1010C0007B627B7F7A6A9A42C5DB00E000BF2C37E7
:1010D000BD4690BD80B58AB002AFF860B9601146D8
:1010E0001A460B46FB801346BB80BB681B78FB7718
:1010F000BB6801331B78BB772DE0FB681878B98893
:10110000FA88BB8D01933B8D00930B46B968FFF7BE
:1011100069FFFB681B78203BFA7F02FB03F3043373
:10112000BA681344BB61BB691B78FB75FB7D9A1CD5
:10113000BB7F9A4207DAFB7D9AB2FB8813449BB2CD
:101140000233FB8004E0BB7F9AB2FB881344FB8030
:10115000FB680133FB60FB681B78002BCDD100BF1F
:1011600000BF2037BD4680BD80B582B000AF78603B
:101170007B68064A934204D101220121044802F00F
:10118000F1F900BF0837BD4680BD00BFD003002085
:101190000004024080B582B000AF0346FB7100BF7F
:1011A000084B1B689B6803F00203022BF8D1FB1D60
:1011B00001221946034803F015F800BF0837BD4661
:1011C00080BD00BFD003002080B582B000AF786042
:1011D0000B467B8000BF084B1B689B6803F0020333
:1011E000022BF8D17B881A467968034802F0FAFF8F
:1011F00000BF0837BD4680BDD003002080B582B057
:1012000000AF0346FB7100224021084802F0AAF912
:1012100000220121064802F0A5F9FB791846FFF7E4
:10122000B9FF00BF0837BD4680BD00BF00000240C7
:101230000004024080B582B000AF0346FB7101227A
:101240004021084802F08EF900220121064802F0F0
:1012500089F9FB791846FFF79DFF00BF0837BD46A7
:1012600080BD00BF000002400004024080B582B093
:1012700000AF78600B467B8001224021084802F0D5
:1012800071F900220121074802F06CF97B881946A8
:101290007868FFF799FF00BF0837BD4680BD00BFE3
:1012A000000002400004024090B585B000AF044643
:1012B000084611461A462346FB800346BB800B4670
:1012C0007B8013463B80FB881B0A9BB2DBB23B73DF
:1012D000FB88DBB27B737B881B0A9BB2DBB2BB73E0
:1012E0007B88DBB2FB732A20FFF788FF07F10C0332
:1012F00004211846FFF7BAFFBB881B0A9BB2DBB27A
:101300003B73BB88DBB27B733B881B0A9BB2DBB2AF
:10131000BB733B88DBB2FB732B20FFF76FFF07F13A
:101320000C0304211846FFF7A1FF2C20FFF766FFEE
:1013300000BF1437BD4690BD80B500AF002210211C
:101340000C4802F00FF90A2001F020FA00220121D6
:10135000094802F007F90A2001F018FA01221021C9
:10136000044802F0FFF801220121034802F0FAF8D4
:1013700000BF80BD000002400004024080B500AF05
:1013800001221021024802F0EDF800BF80BD00BF2D
:101390000000024080B500AFFFF7F0FFFFF7CCFF81
:1013A0000120FFF72BFF0A2001F0F0F9CB20FFF717
:1013B00025FF3920FFF73EFF2C20FFF73BFF0020E1
:1013C000FFF738FF3420FFF735FF0220FFF732FF29
:1013D000CF20FFF713FF0020FFF72CFFC120FFF7FE
:1013E00029FF3020FFF726FFE820FFF707FF8520C1
:1013F000FFF720FF0020FFF71DFF7820FFF71AFFFF
:10140000EA20FFF7FBFE0020FFF714FF0020FFF7A4
:1014100011FFED20FFF7F2FE6420FFF70BFF032022
:10142000FFF708FF1220FFF705FF8120FFF702FFFB
:10143000F720FFF7E3FE2020FFF7FCFEC020FFF7B8
:10144000DDFE2320FFF7F6FEC120FFF7D7FE1020B8
:10145000FFF7F0FEC520FFF7D1FE3E20FFF7EAFEC2
:101460002820FFF7E7FEC720FFF7C8FE8620FFF71A
:10147000E1FE3620FFF7C2FE4820FFF7DBFE3A20F0
:10148000FFF7BCFE5520FFF7D5FEB120FFF7B6FEF3
:101490000020FFF7CFFE1820FFF7CCFEB620FFF7A5
:1014A000ADFE0820FFF7C6FE8220FFF7C3FE27200F
:1014B000FFF7C0FEF220FFF7A1FE0020FFF7BAFE03
:1014C0002620FFF79BFE0120FFF7B4FEE020FFF788
:1014D00095FE0F20FFF7AEFE3120FFF7ABFE2B206D
:1014E000FFF7A8FE0C20FFF7A5FE0E20FFF7A2FED7
:1014F0000820FFF79FFE4E20FFF79CFEF120FFF72C
:1015000099FE3720FFF796FE0720FFF793FE102085
:10151000FFF790FE0320FFF78DFE0E20FFF78AFEF7
:101520000920FFF787FE0020FFF784FEE120FFF788
:1015300065FE0020FFF77EFE0E20FFF77BFE1420E5
:10154000FFF778FE0320FFF775FE1120FFF772FE0C
:101550000720FFF76FFE3120FFF76CFEC120FFF779
:1015600069FE4820FFF766FE0820FFF763FE0F20A4
:10157000FFF760FE0C20FFF75DFE3120FFF75AFEFB
:101580003620FFF757FE0F20FFF754FE1120FFF71C
:1015900035FE642001F0FAF82920FFF72FFE002025
:1015A00000F002F800BF80BD80B582B000AF0346F6
:1015B000FB713620FFF722FE012001F0E7F8FB79EE
:1015C000032B37D801A252F823F000BFDD15000825
:1015D000F3150008091600081F1600084820FFF739
:1015E00029FE174BF0221A80164B4FF4A0721A8076
:1015F00021E02820FFF71EFE114B4FF4A0721A8045
:10160000104BF0221A8016E08820FFF713FE0C4BD7
:10161000F0221A800B4B4FF4A0721A800BE0E820E6
:10162000FFF708FE064B4FF4A0721A80054BF0221C
:101630001A8000E000BF00BF0837BD4680BD00BF74
:1016400002000020000000202DE9F0438DB000AF23
:1016500003463960FB806B461E460023FB623B68F5
:101660005B00B3F5FA7F02D23B68FB6202E04FF405
:10167000FA73FB62012240213E4801F073FF002211
:1016800001213D4801F06EFFFB881B0A9BB287F8E1
:101690002330F96A0B46013BFB61002388469946DB
:1016A0004FF000024FF000034FEAC90343EA5873BA
:1016B0004FEAC80200230C461D464FF000024FF0CF
:1016C0000003EB0043EA5473E200CB1DDB08DB00B0
:1016D000ADEB030D6B460033BB610023BB620EE034
:1016E000BA69BB6A134497F823201A70BB6A0133A6
:1016F000FA88D1B2BA69D154BB6A0233BB62BA6A02
:10170000FB6A9A42ECD33B685B007B617A69FB6AB7
:10171000B2FBF3F33B617B69FA6AB3FBF2F2F96A5D
:1017200001FB02F29B1AFB603B69002B10D00023E7
:101730007B6209E0FB6A9AB20A23B9690F4802F09A
:101740000CFC7B6A01337B627A6A3B699A42F1D373
:10175000FB689AB20A23B969084802F0FEFB01222D
:101760000121054801F0FEFEB54600BF3437BD46F5
:10177000BDE8F0830000024000040240D0030020D6
:1017800080B582B000AF0346FB800E4B1B889AB237
:101790000D4B1B889BB200210020FFF785FD094BF4
:1017A0001B889BB21A46084B1B889BB202FB03F3B3
:1017B0001A46FB8811461846FFF746FF00BF083758
:1017C000BD4680BD020000200000002080B586B02C
:1017D00000AF0346FB800B46BB8013467B802C4B3F
:1017E0001B889BB2FA889A424DD22A4B1B889BB227
:1017F000BA889A4247D2FB881B0A9BB2DBB23B7580
:10180000FB88DBB27B75FB8801331B12DBB2BB7537
:10181000FB88DBB20133DBB2FB75BB881B0A9BB2D2
:10182000DBB23B74BB88DBB27B74BB8801331B1219
:10183000DBB2BB74BB88DBB20133DBB2FB747B88E9
:101840001B0A9BB2DBB23B737B88DBB27B732A2023
:10185000FFF7D4FC07F1140304211846FFF706FD37
:101860002B20FFF7CBFC07F1100304211846FFF7EC
:10187000FDFC2C20FFF7C2FC07F10C0302211846E7
:10188000FFF7F4FC00E000BF1837BD4680BD00BF85
:10189000020000200000002090B583B000AF044695
:1018A000084611461A462346FB800346BB800B467A
:1018B0007B8013463B80244B1B889BB2FA889A425C
:1018C0003DD2224B1B889BB2BA889A4237D2FA8803
:1018D0007B8813441C4A128892B2934205DD1A4B4E
:1018E0001B889AB2FB88D31A7B80BA883B88134442
:1018F000164A128892B2934205DD144B1B889AB2A5
:10190000BB88D31A3B80FA887B8813449BB2013B87
:101910009CB2BA883B8813449BB2013B9BB2B98806
:10192000F8882246FFF7C0FC3B887A8802FB03F365
:101930001A463B8B11461846FFF786FE00E000BFB3
:101940000C37BD4690BD00BF020000200000002003
:1019500080B400AFBFF34F8F00BF064BDB6803F4CA
:10196000E0620449044B1343CB60BFF34F8F00BFC9
:1019700000BFFDE700ED00E00400FA0580B500AF10
:10198000FFF7E6FF80B483B000AF0346FB80094B4E
:101990001B6800225A6200BF064B1B685A6AFB880C
:1019A0009A42F9D300BF00BF0C37BD465DF8047BF7
:1019B000704700BF8804002080B588B000AF786011
:1019C0000B467B8007F10C0300221A605A609A6074
:1019D000DA601A617B88FB6001233B610023BB61F5
:1019E00007F10C031946786801F008FC00BF2037A6
:1019F000BD4680BD80B588B000AF78600B467B8067
:101A000007F10C0300221A605A609A60DA601A61CA
:101A10007B88FB6000233B6101237B6107F10C03A2
:101A20001946786801F0EAFB00BF2037BD4680BD4B
:101A300080B500AF08210D48FFF7BEFF0022082146
:101A40000A4801F08FFD44F25060FFF79BFF01222E
:101A50000821064801F086FD1420FFF793FF0821B6
:101A60000248FFF7C7FF00BF80BD00BF0000024073
:101A700080B582B000AF0023FB712820FFF782FF02
:101A80000821114801F056FD0346002B0ED15020CD
:101A9000FFF778FF08210C4801F04CFD0346002BAE
:101AA00002D00123FB7101E0FF23FB7100BF08217D
:101AB000054801F03FFD0346002BF8D1FB7918469D
:101AC0000837BD4680BD00BF0000024080B582B02F
:101AD00000AF0023BB7137E000BF08211E4801F0B2
:101AE00029FD0346002BF8D02820FFF74BFF0821E3
:101AF000194801F01FFD0346002B0ED1BB79C3F13D
:101B00000703012202FA03F35BB2DB435AB297F9EF
:101B1000073013405BB2FB710BE0BB79C3F10703E5
:101B2000012202FA03F35AB297F9073013435BB26A
:101B3000FB7100BF0821084801F0FCFC0346002BA4
:101B4000F8D1BB790133BB71BB79072BC4D9FB79C1
:101B500018460837BD4680BD0000024080B5A2B0DF
:101B600002AF00F007FEB86700F09EFD00F014F928
:101B700000F054FA00F02AFA00F078F900F0FCF9CD
:101B800000F0AAF96F4802F0A9FEFFF751FFFFF736
:101B90006FFF03461A466C4B1A70FFF797FF034618
:101BA0001A466A4B1A70FFF791FF03461A46684BB4
:101BB0001A70FFF78BFF03461A46664B1A70FFF741
:101BC00085FF03461A46644B1A70FFF77FFF0346F2
:101BD0001A46624B1A805F4B1B781A46604B1A807C
:101BE0005A4B1B781A465F4B1A805D4B1B8807EED9
:101BF000903AF8EE677A5C4BC3ED007A594B1B883C
:101C000007EE903AF8EE677A584BC3ED007AFFF78B
:101C1000C1FB0020FFF7C8FC0020FFF7B1FD544ACC
:101C200007F16C0307CA03C31A704FF4EB725149F2
:101C3000514803F020FA4FF47A7000F0A7FD07F145
:101C40006C014FF0FF3308224B4803F089F9464BF3
:101C50001B681846FEF778FC02460B4607F1380071
:101C6000CDE90023454A322105F0AEF83F4B1B6811
:101C70001846FEF769FC02460B46381DCDE90023E5
:101C80003F4A322105F0A0F807F138000023019304
:101C90001F23009340F2271319223A49FFF71AFA3B
:101CA000381D002301931F23009340F227137D2248
:101CB0003449FFF70FFA344B1B78DBB2002B35D0D9
:101CC000314B00221A7031492A4805F01DF9F86796
:101CD00023E02F4B1B889BB2002201924FF4FC6241
:101CE00000920A222B49F86FFFF7F4F9284B1B8862
:101CF0009BB214339AB2264B1A80F86FFEF7B8FAEB
:101D000003469AB24FF0FF33F96F1B4803F028F9EE
:101D10001E49002005F0F8F8F867FB6F002BD8D1BA
:101D20004FF4EB720021134805F0E5F800F022FDB6
:101D30000246BB6FD31A4EF660229342BBD9FFF71F
:101D40001DFEB8E7880400208C05002078050020DF
:101D5000790500207A0500207B0500207C05002005
:101D6000800500207E0500208405002088050020D5
:101D70009CA70008F8010020D004002078A70008E4
:101D800088A700080CAE0008CE03002098A7000822
:101D900004000020A8A7000880B594B000AF07F1A8
:101DA000200330220021184605F0A5F807F10C03A6
:101DB00000221A605A609A60DA601A610023BB60E0
:101DC000284B1B6C274A43F080531364254B1B6C34
:101DD00003F08053BB60BB6800237B60224B1B6811
:101DE000214A43F4804313601F4B1B6803F4804374
:101DF0007B607B6802233B620123FB6210233B6311
:101E00000223BB630023FB6308233B64A8237B649A
:101E10000223BB640423FB6407F12003184601F08E
:101E2000BBFB0346002B01D000F08EF90F23FB60B3
:101E300002233B6100237B614FF4A053BB614FF44D
:101E40008053FB6107F10C030521184601F01CFECD
:101E50000346002B01D000F077F900BF5037BD4694
:101E600080BD00BF003802400070004080B500AF68
:101E7000174B184A1A60164B4FF482725A60144B73
:101E800000229A60124B0022DA60114B00221A6184
:101E90000F4B00225A610E4B4FF400729A610C4BAB
:101EA0000022DA610A4B00221A62094B00225A62B0
:101EB000074B00229A62064B0A22DA62044801F0BC
:101EC000C3FF0346002B01D000F03EF900BF80BDE8
:101ED000D00300200030014080B586B000AF07F18C
:101EE000080300221A605A609A60DA603B460022BA
:101EF0001A605A601E4B1F4A1A601D4BA7225A6077
:101F00001B4B00229A601A4B4FF6FE72DA60184B98
:101F100000221A61164B00225A61154B00229A6169
:101F2000134802F08BFC0346002B01D000F00CF9A3
:101F30004FF48053BB6007F1080319460C4802F0C8
:101F400035FD0346002B01D000F0FEF800233B6076
:101F500000237B603B461946054802F035FF0346E7
:101F6000002B01D000F0F0F800BF1837BD4680BD4F
:101F7000880400200000014080B500AF114B124AD8
:101F80001A60104B4FF416525A600E4B00229A60A2
:101F90000C4B0022DA600B4B00221A61094B0C2219
:101FA0005A61084B00229A61064B0022DA6105480B
:101FB00002F086FF0346002B01D000F0C5F800BFF9
:101FC00080BD00BFD00400200010014080B582B069
:101FD00000AF00237B60104B1B6B0F4A43F4800360
:101FE00013630D4B1B6B03F480037B607B68002243
:101FF00000213A2000F0C9FC3A2000F0E2FC002267
:1020000000213B2000F0C1FC3B2000F0DAFC00BFC7
:102010000837BD4680BD00BF0038024080B588B09B
:1020200000AF07F10C0300221A605A609A60DA6070
:102030001A610023BB60324B1B6B314A43F08003B3
:1020400013632F4B1B6B03F08003BB60BB68002343
:102050007B602B4B1B6B2A4A43F001031363284B15
:102060001B6B03F001037B607B6800233B60244B08
:102070001B6B234A43F002031363214B1B6B03F0DA
:1020800002033B603B68002208211E4801F06AFA07
:10209000012250211B4801F065FA012201211A4852
:1020A00001F060FA0823FB6001233B6100237B61A0
:1020B0000023BB6107F10C031946124801F09EF89A
:1020C0005023FB6001233B6101237B610223BB6141
:1020D00007F10C0319460B4801F090F80123FB604F
:1020E00001233B6101237B610223BB6107F10C03E8
:1020F0001946054801F082F800BF2037BD4680BD73
:1021000000380240000002400004024080B582B066
:1021100000AF78607B681B68074A934208D1074B81
:1021200001221A704FF4EB720549064802F0A3FF32
:1021300000BF0837BD4680BD00100140CE0300201F
:10214000F8010020D004002080B400AF72B600BFB8
:1021500000BFFDE780B483B000AF00237B60104B6D
:102160005B6C0F4A43F4804353640D4B5B6C03F488
:1021700080437B607B6800233B60094B1B6C084AF3
:1021800043F080531364064B1B6C03F080533B6099
:102190003B6800BF0C37BD465DF8047B704700BF4D
:1021A0000038024080B58AB000AF786007F11403B0
:1021B00000221A605A609A60DA601A617B681B68B4
:1021C000344A934261D100233B61334B5B6C324A0A
:1021D00043F480535364304B5B6C03F480533B6196
:1021E0003B690023FB602C4B1B6B2B4A43F0010324
:1021F0001363294B1B6B03F00103FB60FB68A023F7
:102200007B610223BB610023FB6103233B62052347
:102210007B6207F114031946204800F0EFFF204BC2
:10222000204A1A601E4B4FF0C0625A601C4B40227D
:102230009A601B4B0022DA60194B4FF480621A61DE
:10224000174B00225A61164B00229A61144B002250
:10225000DA61134B00221A62114B00225A621048B5
:1022600000F0CAFB0346002B01D0FFF76DFF7B682F
:102270000B4A9A640A4A7B68936300220021232058
:1022800000F083FB232000F09CFB00BF2837BD46F5
:1022900080BD00BF00300140003802400000024015
:1022A000280400205864024080B485B000AF7860F4
:1022B0007B681B680B4A93420DD10023FB600A4BDD
:1022C0005B6C094A43F001035364074B5B6C03F0FA
:1022D0000103FB60FB6800BF1437BD465DF8047B5B
:1022E000704700BF000001400038024080B58AB04E
:1022F00000AF786007F1140300221A605A609A60F8
:10230000DA601A617B681B68354A934263D1002307
:102310003B61344B5B6C334A43F010035364314BE5
:102320005B6C03F010033B613B690023FB602D4BAA
:102330001B6B2C4A43F0010313632A4B1B6B03F006
:102340000103FB60FB684FF4C0637B610223BB6148
:102350000023FB6103233B6207237B6207F1140325
:102360001946214800F04AFF204B214A1A601F4BB2
:102370004FF000625A601D4B00229A601B4B0022F6
:10238000DA601A4B4FF480621A61184B00225A61CE
:10239000164B00229A61154B4FF48072DA61134B91
:1023A00000221A62114B00225A62104800F024FBEE
:1023B0000346002B01D0FFF7C7FE7B680B4ADA63A8
:1023C0000A4A7B68936300220121252000F0DDFA90
:1023D000252000F0F6FA00BF2837BD4680BD00BFBB
:1023E00000100140003802400000024018050020A3
:1023F0004064024080B400AF00BFFDE780B400AF8E
:1024000000BFFDE780B400AF00BFFDE780B400AFC0
:1024100000BFFDE780B400AF00BFFDE780B400AFB0
:1024200000BFBD465DF8047B704780B400AF00BFBD
:10243000BD465DF8047B704780B400AF00BFBD4669
:102440005DF8047B704780B500AF00F07FF900BFF6
:1024500080BD000080B500AF024801F075FF00BFED
:1024600080BD00BFD003002080B500AF024802F05D
:1024700027FE00BF80BD00BFD004002080B500AFA4
:10248000024800F051FC00BF80BD00BF18050020CD
:1024900080B500AF024800F047FC00BF80BD00BF20
:1024A0002804002080B400AF01231846BD465DF823
:1024B000047B704780B582B000AF7860396004F06B
:1024C000C9FD034616221A604FF0FF33184608373D
:1024D000BD4680BD80B582B000AF78604FF0FF315F
:1024E0007868FFF7E7FF00BFFDE780B586B000AF73
:1024F000F860B9607A6000237B610AE0AFF3008086
:102500000146BB685A1CBA60CAB21A707B690133B3
:102510007B617A697B689A42F0DB7B6818461837E2
:10252000BD4680BD80B586B000AFF860B9607A6006
:1025300000237B6109E0BB685A1CBA601B7818460F
:10254000AFF300807B6901337B617A697B689A42D3
:10255000F1DB7B6818461837BD4680BD80B483B078
:1025600000AF78604FF0FF3318460C37BD465DF87A
:10257000047B704780B483B000AF786039603B68FB
:102580004FF400525A60002318460C37BD465DF8E0
:10259000047B704780B483B000AF78600123184695
:1025A0000C37BD465DF8047B704780B485B000AF42
:1025B000F860B9607A60002318461437BD465DF8AC
:1025C000047B704780B586B000AF7860144A154B25
:1025D000D31A7B617B693B61134B1B68002B02D1D3
:1025E000114B124A1A60104B1A687B6813443A69FF
:1025F0009A4207D204F02EFD03460C221A604FF0D7
:10260000FF3309E0084B1B68FB60074B1A687B68C7
:102610001344054A1360FB6818461837BD4680BD51
:10262000000002200004000090050020E8060020C1
:1026300080B400AF064BD3F88830054A43F47003EA
:10264000C2F8883000BFBD465DF8047B704700BF0C
:1026500000ED00E0DFF834D0FFF7EAFF0C480D4949
:102660000D4A002302E0D458C4500433C4188C42ED
:10267000F9D30A4A0A4C002301E013600432A24253
:10268000FBD304F0EDFCFFF769FA7047000002206D
:1026900000000020DC010020ACBA0008DC010020B2
:1026A000E4060020FEE7000080B500AF0E4B1B687B
:1026B0000D4A43F4007313600B4B1B680A4A43F442
:1026C00080631360084B1B68074A43F480731360F0
:1026D000032000F04FF90F2000F008F8FFF73AFD53
:1026E0000023184680BD00BF003C024080B582B088
:1026F00000AF7860124B1A68124B1B7819464FF4E2
:102700007A73B3FBF1F3B2FBF3F3184600F067F909
:102710000346002B01D001230EE07B680F2B0AD863
:10272000002279684FF0FF3000F02FF9064A7B68ED
:102730001360002300E0012318460837BD4680BD22
:1027400008000020100000200C00002080B400AF22
:10275000064B1B781A46064B1B681344044A136049
:1027600000BFBD465DF8047B704700BF100000202D
:102770009405002080B400AF034B1B681846BD468B
:102780005DF8047B704700BF9405002080B584B0DD
:1027900000AF7860FFF7EEFFB8607B68FB60FB6816
:1027A000B3F1FF3F05D00A4B1B781A46FB68134470
:1027B000FB6000BFFFF7DEFF0246BB68D31AFA6872
:1027C0009A42F7D800BF00BF1037BD4680BD00BF9A
:1027D0001000002080B485B000AF78607B6803F003
:1027E0000703FB600C4BDB68BB60BA684FF6FF0366
:1027F0001340BB60FB681A02BB68134343F0BF631E
:1028000043F40033BB60044ABB68D36000BF143795
:10281000BD465DF8047B704700ED00E080B400AF7A
:10282000044BDB681B0A03F007031846BD465DF83E
:10283000047B704700ED00E080B483B000AF034636
:10284000FB7197F90730002B0BDBFB7903F01F02BC
:10285000074997F907305B09012000FA02F241F8B5
:10286000232000BF0C37BD465DF8047B704700BFD6
:1028700000E100E080B483B000AF03463960FB7133
:1028800097F90730002B0ADB3B68DAB20C4997F95D
:1028900007301201D2B20B4483F800230AE03B68F0
:1028A000DAB20849FB7903F00F03043B1201D2B2FC
:1028B0000B441A7600BF0C37BD465DF8047B7047A9
:1028C00000E100E000ED00E080B489B000AFF86006
:1028D000B9607A60FB6803F00703FB61FB69C3F131
:1028E0000703042B28BF0423BB61FB690433062BB9
:1028F00002D9FB69033B00E000237B614FF0FF320C
:10290000BB6902FA03F3DA43BB681A407B699A4059
:102910004FF0FF317B6901FA03F3D9437B680B4029
:10292000134318462437BD465DF8047B704700000A
:1029300080B582B000AF78607B68013BB3F1807FE7
:1029400001D301230FE00A4A7B68013B53600F214A
:102950004FF0FF30FFF78EFF054B00229A60044BCB
:1029600007221A60002318460837BD4680BD00BF05
:1029700010E000E080B582B000AF78607868FFF7C3
:1029800029FF00BF0837BD4680BD80B586B000AFC7
:102990000346B9607A60FB7300237B61FFF73EFF5B
:1029A00078617A68B9687869FFF78EFF024697F90F
:1029B0000F3011461846FFF75DFF00BF1837BD46C0
:1029C00080BD80B582B000AF0346FB7197F9073038
:1029D0001846FFF731FF00BF0837BD4680BD80B500
:1029E00082B000AF78607868FFF7A2FF0346184610
:1029F0000837BD4680BD000080B586B000AF786066
:102A000000237B61FFF7B6FE38617B68002B01D1A4
:102A1000012399E07B68022283F835207B6800223D
:102A200083F834207B681B681A687B681B6822F077
:102A300001021A600FE0FFF79DFE02463B69D31AC0
:102A4000052B08D97B6820225A657B68032283F80E
:102A50003520032378E07B681B681B6803F00103C3
:102A6000002BE8D17B681B681B687B617A69384B57
:102A700013407B617B685A687B689B681A437B685C
:102A8000DB681A437B681B691A437B685B691A43DE
:102A90007B689B691A437B68DB691A437B681B6A06
:102AA00013437A6913437B617B685B6A042B07D10C
:102AB0007B68DA6A7B681B6B13437A6913437B611B
:102AC0007B681B687A691A607B681B685B697B613D
:102AD0007B6923F007037B617B685B6A7A69134338
:102AE0007B617B685B6A042B17D17B689B6A7A6980
:102AF00013437B617B68DB6A002B0ED0786800F0A3
:102B000001FB0346002B08D07B6840225A657B6896
:102B1000012283F83520012316E07B681B687A695F
:102B20005A61786800F0B8FA0346FB607B68DB6D99
:102B30003F229A40FB689A607B6800225A657B6856
:102B4000012283F83520002318461837BD4680BD82
:102B50003F8010F080B586B000AFF860B9607A6051
:102B60003B600023FB75FB689B6D3B61FB6893F842
:102B70003430012B01D1022340E0FB68012283F8AD
:102B80003420FB6893F83530DBB2012B2FD1FB6882
:102B9000022283F83520FB6800225A653B687A6878
:102BA000B968F86800F04AFAFB68DB6D3F229A408A
:102BB0003B699A60FB681B681A68FB681B6842F0F7
:102BC00016021A60FB681B6C002B07D0FB681B68A1
:102BD0001A68FB681B6842F008021A60FB681B68F1
:102BE0001A68FB681B6842F001021A6005E0FB6886
:102BF000002283F834200223FB75FB7D184618372A
:102C0000BD4680BD80B584B000AF78607B689B6DA9
:102C1000FB60FFF7AFFDB8607B6893F83530DBB23F
:102C2000022B08D07B6880225A657B68002283F8DB
:102C30003420012352E07B681B681A687B681B689C
:102C400022F016021A607B681B685A697B681B6851
:102C500022F080025A617B681B6C002B03D17B68D9
:102C60009B6C002B07D07B681B681A687B681B680D
:102C700022F008021A607B681B681A687B681B6870
:102C800022F001021A6013E0FFF774FD0246BB68F0
:102C9000D31A052B0CD97B6820225A657B68032246
:102CA00083F835207B68002283F83420032315E065
:102CB0007B681B681B6803F00103002BE4D17B6871
:102CC000DB6D3F229A40FB689A607B68012283F8A3
:102CD00035207B68002283F8342000231846103703
:102CE000BD4680BD80B483B000AF78607B6893F848
:102CF0003530DBB2022B04D07B6880225A65012379
:102D00000CE07B68052283F835207B681B681A6815
:102D10007B681B6822F001021A60002318460C37FA
:102D2000BD465DF8047B704780B586B000AF786023
:102D30000023BB608E4B1B688E4AA2FB03239B0AB9
:102D40007B617B689B6D3B613B691B68FB607B68BB
:102D5000DB6D08229A40FB681340002B1AD07B6879
:102D60001B681B6803F00403002B13D07B681B68EF
:102D70001A687B681B6822F004021A607B68DB6DAE
:102D800008229A403B699A607B685B6D43F00102C0
:102D90007B685A657B68DB6D01229A40FB681340B3
:102DA000002B12D07B681B685B6903F08003002B4B
:102DB0000BD07B68DB6D01229A403B699A607B688F
:102DC0005B6D43F002027B685A657B68DB6D042211
:102DD0009A40FB681340002B12D07B681B681B686D
:102DE00003F00203002B0BD07B68DB6D04229A40BA
:102DF0003B699A607B685B6D43F004027B685A65AF
:102E00007B68DB6D10229A40FB681340002B43D097
:102E10007B681B681B6803F00803002B3CD07B68B1
:102E2000DB6D10229A403B699A607B681B681B68C7
:102E300003F48023002B18D07B681B681B6803F405
:102E40000023002B08D17B681B6C002B24D07B68EF
:102E50001B6C786898471FE07B689B6C002B1BD02D
:102E60007B689B6C7868984716E07B681B681B68DA
:102E700003F48073002B07D17B681B681A687B689A
:102E80001B6822F008021A607B681B6C002B03D0C1
:102E90007B681B6C786898477B68DB6D20229A40C2
:102EA000FB681340002B00F08F807B681B681B6859
:102EB00003F01003002B00F087807B68DB6D20227D
:102EC0009A403B699A607B6893F83530DBB2052BFA
:102ED00036D17B681B681A687B681B6822F0160273
:102EE0001A607B681B685A697B681B6822F0800245
:102EF0005A617B681B6C002B03D17B689B6C002B99
:102F000007D07B681B681A687B681B6822F0080280
:102F10001A607B68DB6D3F229A403B699A607B6850
:102F2000012283F835207B68002283F834207B68F7
:102F30001B6D002B7ED07B681B6D7868984779E00D
:102F40007B681B681B6803F48023002B1DD07B6803
:102F50001B681B6803F40023002B0DD17B685B6C9E
:102F6000002B31D07B685B6C786898472CE000BF01
:102F700008000020B5814E1B7B68DB6B002B23D043
:102F80007B68DB6B786898471EE07B681B681B6872
:102F900003F48073002B0FD17B681B681A687B6871
:102FA0001B6822F010021A607B68012283F835202A
:102FB0007B68002283F834207B68DB6B002B03D016
:102FC0007B68DB6B786898477B685B6D002B32D041
:102FD0007B685B6D03F00103002B22D07B68052228
:102FE00083F835207B681B681A687B681B6822F0B1
:102FF00001021A60BB680133BB607A699A4207D349
:103000007B681B681B6803F00103002BF2D100E012
:1030100000BF7B68012283F835207B68002283F89B
:1030200034207B68DB6C002B05D07B68DB6C786818
:10303000984700E000BF1837BD4680BD80B485B01A
:1030400000AFF860B9607A603B60FB681B681A6883
:10305000FB681B6822F480221A60FB681B683A68D0
:103060005A60FB689B68402B08D1FB681B687A6834
:103070009A60FB681B68BA68DA6007E0FB681B6847
:10308000BA689A60FB681B687A68DA6000BF143718
:10309000BD465DF8047B704780B485B000AF7860B2
:1030A0007B681B68DBB2103B144AA2FB03231B099D
:1030B000FB60134AFB6813441B781A467B68DA6589
:1030C000FB68032B09D97B681B6823F47F7323F00B
:1030D00003031A1D7B689A6507E07B681B6823F46D
:1030E0007F7323F003037A6893657B689B6D1846B2
:1030F0001437BD465DF8047B704700BFABAAAAAA8F
:1031000008B6000880B485B000AF78600023FB7378
:103110007B689B6ABB607B689B69002B1FD1BB6887
:10312000032B56D801A252F823F000BF3D3100080E
:103130004F3100083D310008D33100087B68DB6A5D
:1031400003F08073002B46D00123FB7343E07B68C0
:10315000DB6AB3F1C07F40D10123FB733DE07B68A4
:103160009B69B3F5005F21D1BB68032B37D801A25F
:1031700052F823F0853100088B31000885310008B2
:103180009D3100080123FB7330E07B68DB6A03F0AC
:103190008073002B25D00123FB7322E07B68DB6A60
:1031A000B3F1C07F1FD10123FB731CE0BB68022B6E
:1031B00003D9BB68032B03D018E00123FB7315E090
:1031C0007B68DB6A03F08073002B0ED00123FB7356
:1031D0000BE000BF0AE000BF08E000BF06E000BF50
:1031E00004E000BF02E000BF00E000BFFB7B184628
:1031F0001437BD465DF8047B704700BF80B489B0CA
:1032000000AF7860396000237B6100233B610023BD
:10321000BB610023FB616BE10122FB6902FA03F34E
:103220007B613B681B687A6913403B613A697B6943
:103230009A4240F05A813B685B6803F00303012B1C
:1032400005D03B685B6803F00303022B30D17B6839
:103250009B68BB61FB695B00032202FA03F3DB435B
:10326000BA691340BB613B68DA68FB695B0002FA2C
:1032700003F3BA691343BB617B68BA699A607B68E0
:103280005B68BB610122FB6902FA03F3DB43BA69A5
:103290001340BB613B685B681B0903F00102FB69DB
:1032A00002FA03F3BA691343BB617B68BA695A60D7
:1032B0003B685B6803F00303032B17D07B68DB6874
:1032C000BB61FB695B00032202FA03F3DB43BA69CB
:1032D0001340BB613B689A68FB695B0002FA03F329
:1032E000BA691343BB617B68BA69DA603B685B68A3
:1032F00003F00303022B23D1FB69DA087B68083251
:1033000053F82230BB61FB6903F007039B000F22D7
:1033100002FA03F3DB43BA691340BB613B681A69E5
:10332000FB6903F007039B0002FA03F3BA69134336
:10333000BB61FB69DA087B680832B96943F822107F
:103340007B681B68BB61FB695B00032202FA03F325
:10335000DB43BA691340BB613B685B6803F003025F
:10336000FB695B0002FA03F3BA691343BB617B6834
:10337000BA691A603B685B6803F44033002B00F0C5
:10338000B4800023FB60604B5B6C5F4A43F4804376
:1033900053645D4B5B6C03F48043FB60FB685B4AEA
:1033A000FB699B08023352F82330BB61FB6903F0D1
:1033B00003039B000F2202FA03F3DB43BA691340B5
:1033C000BB617B68524A93422BD07B68514A93423F
:1033D00025D07B68504A93421FD07B684F4A934266
:1033E00019D07B684E4A934213D07B684D4A934272
:1033F0000DD07B684C4A934207D07B684B4A93427E
:1034000001D107230EE008230CE006230AE0052380
:1034100008E0042306E0032304E0022302E0012382
:1034200000E00023FA6902F0030292009340BA69B7
:103430001343BB613549FB699B080233BA6941F804
:1034400023203B4B9B68BB613B69DB43BA6913405C
:10345000BB613B685B6803F48013002B03D0BA693F
:103460003B691343BB61324ABB699360304BDB68F5
:10347000BB613B69DB43BA691340BB613B685B6876
:1034800003F40013002B03D0BA693B691343BB61FB
:10349000274ABB69D360264B5B68BB613B69DB4352
:1034A000BA691340BB613B685B6803F40033002BCF
:1034B00003D0BA693B691343BB611D4ABB695360C2
:1034C0001B4B1B68BB613B69DB43BA691340BB61A3
:1034D0003B685B6803F48033002B03D0BA693B6917
:1034E0001343BB61124ABB691360FB690133FB6183
:1034F000FB690F2B7FF690AE00BF00BF2437BD469F
:103500005DF8047B704700BF00380240003801407E
:10351000000002400004024000080240000C02408B
:10352000001002400014024000180240001C02403B
:10353000003C014080B485B000AF78600B467B80D2
:103540007B681A697B881340002B02D00123FB7330
:1035500001E00023FB73FB7B18461437BD465DF882
:10356000047B704780B483B000AF78600B467B80EB
:1035700013467B707B78002B03D07A887B689A6136
:1035800003E07B881A047B689A6100BF0C37BD4654
:103590005DF8047B7047000080B586B000AF7860AE
:1035A0007B68002B01D1012367E27B681B6803F075
:1035B0000103002B75D0884B9B6803F00C03042B90
:1035C0000CD0854B9B6803F00C03082B12D1824B67
:1035D0005B6803F48003B3F5800F0BD17E4B1B684F
:1035E00003F40033002B5BD07B685B68002B57D162
:1035F000012342E27B685B68B3F5803F06D1764BDE
:103600001B68754A43F4803313601DE07B685B6878
:10361000B3F5A02F0CD1704B1B686F4A43F4802385
:1036200013606D4B1B686C4A43F4803313600BE0EE
:10363000694B1B68684A23F480331360664B1B6830
:10364000654A23F4802313607B685B68002B13D0EA
:10365000FFF790F8386108E0FFF78CF802463B6905
:10366000D31A642B01D9032307E25B4B1B6803F4D5
:103670000033002BF0D014E0FFF77CF8386108E04D
:10368000FFF778F802463B69D31A642B01D903236C
:10369000F3E1514B1B6803F40033002BF0D100E041
:1036A00000BF7B681B6803F00203002B63D04A4B0A
:1036B0009B6803F00C03002B0BD0474B9B6803F077
:1036C0000C03082B1CD1444B5B6803F48003002BD4
:1036D00016D1414B1B6803F00203002B05D07B6819
:1036E000DB68012B01D00123C7E13B4B1B6823F0B2
:1036F000F8027B681B69DB00374913430B603AE033
:103700007B68DB68002B20D0344B01221A60FFF766
:1037100031F8386108E0FFF72DF802463B69D31A0B
:10372000022B01D90323A8E12B4B1B6803F00203F2
:10373000002BF0D0284B1B6823F0F8027B681B6934
:10374000DB00254913430B6015E0244B00221A606F
:10375000FFF710F8386108E0FFF70CF802463B6904
:10376000D31A022B01D9032387E11B4B1B6803F0FB
:103770000203002BF0D17B681B6803F00803002BC9
:1037800036D07B685B69002B16D0154B01221A607E
:10379000FEF7F0FF386108E0FEF7ECFF02463B69F8
:1037A000D31A022B01D9032367E10B4B5B6F03F0A4
:1037B0000203002BF0D01BE0094B00221A60FEF739
:1037C000D9FF38610EE0FEF7D5FF02463B69D31AF8
:1037D000022B07D9032350E1003802400000474282
:1037E000800E4742884B5B6F03F00203002BEAD147
:1037F0007B681B6803F00403002B00F09780002314
:10380000FB75814B1B6C03F08053002B0FD1002301
:10381000BB607D4B1B6C7C4A43F0805313647A4B36
:103820001B6C03F08053BB60BB680123FB75774BB7
:103830001B6803F48073002B18D1744B1B68734A08
:1038400043F480731360FEF795FF386108E0FEF7DC
:1038500091FF02463B69D31A022B01D903230CE1E5
:103860006A4B1B6803F48073002BF0D07B689B6865
:10387000012B06D1644B1B6F634A43F001031367AE
:103880001CE07B689B68052B0CD15F4B1B6F5E4A6D
:1038900043F0040313675C4B1B6F5B4A43F0010367
:1038A00013670BE0584B1B6F574A23F00103136754
:1038B000554B1B6F544A23F0040313677B689B68C6
:1038C000002B15D0FEF756FF38610AE0FEF752FFD5
:1038D00002463B69D31A41F28832934201D903234D
:1038E000CBE0494B1B6F03F00203002BEED014E03A
:1038F000FEF740FF38610AE0FEF73CFF02463B69F5
:10390000D31A41F28832934201D90323B5E03E4BEA
:103910001B6F03F00203002BEED1FB7D012B05D1C1
:10392000394B1B6C384A23F0805313647B689B69C6
:10393000002B00F0A180344B9B6803F00C03082B94
:103940005CD07B689B69022B41D1314B00221A600D
:10395000FEF710FF386108E0FEF70CFF02463B69F6
:10396000D31A022B01D9032387E0274B1B6803F0EE
:103970000073002BF0D17B68DA697B681B6A1A43FD
:103980007B685B6A9B011A437B689B6A5B08013B0F
:103990001B041A437B68DB6A1B061B4913434B60FD
:1039A0001B4B01221A60FEF7E5FE386108E0FEF7C6
:1039B000E1FE02463B69D31A022B01D903235CE0E6
:1039C000114B1B6803F00073002BF0D054E0104B38
:1039D00000221A60FEF7CEFE386108E0FEF7CAFE4C
:1039E00002463B69D31A022B01D9032345E0064B5B
:1039F0001B6803F00073002BF0D13DE07B689B69EE
:103A0000012B07D1012338E000380240007000404C
:103A1000600047421B4B5B68FB607B689B69012B26
:103A200028D0FB6803F480027B68DB699A4221D1CD
:103A3000FB6803F03F027B681B6A9A421AD1FA685E
:103A400047F6C07313407A68526A9201934211D1CB
:103A5000FB6803F440327B689B6A5B08013B1B04F4
:103A60009A4207D1FB6803F070627B68DB6A1B0631
:103A70009A4201D0012300E0002318461837BD46C2
:103A800080BD00BF0038024080B584B000AF7860D0
:103A900039607B68002B01D10123CCE0684B1B68A7
:103AA00003F007033A689A420CD9654B3A68D2B2E0
:103AB0001A70634B1B6803F007033A689A4201D0FF
:103AC0000123B8E07B681B6803F00203002B20D0C1
:103AD0007B681B6803F00403002B05D0594B9B68DF
:103AE000584A43F4E05393607B681B6803F0080373
:103AF000002B05D0534B9B68524A43F460439360BC
:103B0000504B9B6823F0F0027B689B684D49134340
:103B10008B607B681B6803F00103002B44D07B683B
:103B20005B68012B07D1474B1B6803F40033002B64
:103B300019D101237FE07B685B68022B03D07B688F
:103B40005B68032B07D13F4B1B6803F00073002B0E
:103B500009D101236FE03B4B1B6803F00203002BEC
:103B600001D1012367E0374B9B6823F003027B6898
:103B70005B68344913438B60FEF7FCFDF8600AE094
:103B8000FEF7F8FD0246FB68D31A41F288329342F1
:103B900001D903234FE02B4B9B6803F00C027B6899
:103BA0005B689B009A42EBD1254B1B6803F007032F
:103BB0003A689A420CD2224B3A68D2B21A70204B21
:103BC0001B6803F007033A689A4201D0012332E0F0
:103BD0007B681B6803F00403002B08D0194B9B681B
:103BE00023F4E0527B68DB68164913438B607B68E3
:103BF0001B6803F00803002B09D0124B9B6823F4C9
:103C000060427B681B69DB000E4913438B6000F048
:103C100021F802460B4B9B681B0903F00F030A496E
:103C2000CB5C22FA03F3094A1360094B1B68184660
:103C3000FEF75CFD002318461037BD4680BD00BF6F
:103C4000003C024000380240F0B5000808000020A7
:103C50000C0000202DE9B04F90B000AF00237B6333
:103C60000023FB6300233B630023BB63594B9B682A
:103C700003F00C03082B0DD0082B00F2A180002BC1
:103C800002D0042B03D09BE0534BBB639BE0534B10
:103C9000BB6398E04F4B5B6803F03F037B634D4B86
:103CA0005B6803F48003002B28D04A4B5B689B09B8
:103CB00000223B627A623B6AC3F308000021474B53
:103CC00003FB01F2002300FB03F31344434AA0FB70
:103CD0000212FA620A46BA62FA6A1344FB627B6B0A
:103CE0000022BB61FA61D7E90623D7E90A01FCF794
:103CF000CBFF02460B461346FB6353E0354B5B6834
:103D00009B0900223B617A613B69C3F3080A4FF0CB
:103D1000000B52465B464FF000004FF00001590186
:103D200041EAD261500102460B46B2EB0A0863EB4E
:103D30000B094FF000024FF000034FEA891343EAEA
:103D400098634FEA8812B2EB080463EB09054FF061
:103D500000024FF00003EB0043EA5473E200144604
:103D60001D4614EB0A033B6045EB0B037B604FF0F1
:103D700000024FF00003D7E9004529468B02214697
:103D800043EA915321468A02104619467B6B002272
:103D9000BB60FA60D7E90223FCF776FF02460B46C8
:103DA0001346FB630B4B5B681B0C03F003030133EF
:103DB0005B003B63FA6B3B6BB2FBF3F3BB6302E06C
:103DC000054BBB6300BFBB6B18464037BD46BDE823
:103DD000B08F00BF003802400024F40040787D011D
:103DE00080B400AF034B1B681846BD465DF8047BEA
:103DF000704700BF0800002080B500AFFFF7F0FF5C
:103E00000246054B9B689B0A03F007030349CB5C02
:103E100022FA03F3184680BD0038024000B60008BD
:103E200080B500AFFFF7DCFF0246054B9B685B0BDC
:103E300003F007030349CB5C22FA03F3184680BD65
:103E40000038024000B6000880B582B000AF78604C
:103E50007B68002B01D101237BE07B685B6A002B30
:103E600008D17B685B68B3F5827F09D07B6800224C
:103E7000DA6105E07B6800221A617B6800225A61E2
:103E80007B6800229A627B6893F85130DBB2002B8A
:103E900006D17B68002283F850207868FEF782F90B
:103EA0007B68022283F851207B681B681A687B6854
:103EB0001B6822F040021A607B685B6803F4827220
:103EC0007B689B6803F404431A437B68DB6803F454
:103ED00000631A437B681B6903F002031A437B6883
:103EE0005B6903F001031A437B689B6903F4007369
:103EF0001A437B68DB6903F038031A437B681B6A4B
:103F000003F0800342EA03017B689B6A03F40052DA
:103F10007B681B680A431A607B689B691B0C03F073
:103F200004017B685B6A03F010027B681B680A432C
:103F30005A607B681B68DA697B681B6822F4006240
:103F4000DA617B6800225A657B68012283F8512080
:103F5000002318460837BD4680BD80B588B000AF45
:103F6000F860B9603B601346FB80FEF703FCF86124
:103F7000FB887B83FB6893F85130DBB2012B01D0C7
:103F800002232AE1BB68002B02D0FB88002B01D161
:103F9000012322E1FB6893F85030012B01D1022369
:103FA0001BE1FB68012283F85020FB68032283F8A1
:103FB0005120FB6800225A65FB68BA681A63FB68E7
:103FC000FA889A86FB68FA88DA86FB6800229A6388
:103FD000FB6800229A87FB680022DA87FB680022D0
:103FE0005A64FB6800221A64FB689B68B3F5004FB3
:103FF0000FD1FB681B681A68FB681B6822F040023F
:104000001A60FB681B681A68FB681B6842F48042F0
:104010001A60FB681B681B6803F04003402B07D045
:10402000FB681B681A68FB681B6842F040021A6054
:10403000FB68DB68B3F5006F52D1FB685B68002B4F
:1040400002D07B8B012B45D1FB681B6B1A88FB6868
:104050001B68DA60FB681B6B9A1CFB681A63FB68C1
:10406000DB8E9BB2013B9AB2FB68DA8632E0FB68DA
:104070001B689B6803F00203022B12D1FB681B6BC9
:104080001A88FB681B68DA60FB681B6B9A1CFB686C
:104090001A63FB68DB8E9BB2013B9AB2FB68DA863F
:1040A00018E0FEF767FB0246FB69D31A3A689A42AA
:1040B00003D83B68B3F1FF3F02D13B68002B09D125
:1040C000FB68012283F85120FB68002283F850200E
:1040D000032382E0FB68DB8E9BB2002BC7D153E049
:1040E000FB685B68002B02D07B8B012B47D1FB6800
:1040F0001A6BFB681B680C3312781A70FB681B6B19
:104100005A1CFB681A63FB68DB8E9BB2013B9AB2B8
:10411000FB68DA8633E0FB681B689B6803F00203E8
:10412000022B13D1FB681A6BFB681B680C331278E7
:104130001A70FB681B6B5A1CFB681A63FB68DB8EEA
:104140009BB2013B9AB2FB68DA8618E0FEF712FBDD
:104150000246FB69D31A3A689A4203D83B68B3F126
:10416000FF3F02D13B68002B09D1FB68012283F895
:104170005120FB68002283F8502003232DE0FB68C8
:10418000DB8E9BB2002BC6D1FA693968F86800F063
:1041900001FB0346002B02D0FB6820225A65FB6816
:1041A0009B68002B0AD100237B61FB681B68DB68DE
:1041B0007B61FB681B689B687B617B69FB680122F4
:1041C00083F85120FB68002283F85020FB685B6D68
:1041D000002B01D0012300E0002318462037BD4604
:1041E00080BD000080B584B000AFF860B9601346B0
:1041F000FB80FB6893F85130DBB2012B01D0022326
:1042000097E0BB68002B02D0FB88002B01D1012373
:104210008FE0FB6893F85030012B01D1022388E036
:10422000FB68012283F85020FB68032283F85120A9
:10423000FB6800225A65FB68BA681A63FB68FA8853
:104240009A86FB68FA88DA86FB6800229A63FB6824
:1042500000225A64FB6800221A64FB6800229A87D5
:10426000FB680022DA87FB689B68B3F5004F0FD12B
:10427000FB681B681A68FB681B6822F040021A6022
:10428000FB681B681A68FB681B6842F480421A606E
:10429000FB689B6C294A1A64FB689B6C284ADA63AA
:1042A000FB689B6C274ADA64FB689B6C00221A65EA
:1042B000FB68986CFB681B6B1946FB681B680C332A
:1042C0001A46FB68DB8E9BB2FEF744FC0346002BCC
:1042D0000BD0FB685B6D43F01002FB685A65FB680E
:1042E000002283F85020012323E0FB681B681B6831
:1042F00003F04003402B07D0FB681B681A68FB687B
:104300001B6842F040021A60FB68002283F85020CC
:10431000FB681B685A68FB681B6842F020025A6001
:10432000FB681B685A68FB681B6842F002025A600F
:10433000002318461037BD4680BD00BF0146000867
:10434000594500081D46000880B588B000AF786068
:104350007B681B685B68FB617B681B689B68BB6153
:10436000BB6903F04003002B0ED1BB6903F00103CE
:10437000002B09D0FB6903F04003002B04D07B68BD
:104380001B6C78689847CEE0BB6903F00203002BF2
:1043900009D0FB6903F08003002B04D07B685B6CC1
:1043A00078689847BFE0BB6903F02003002B0AD16F
:1043B000BB6903F04003002B05D1BB6903F4807394
:1043C000002B00F0B080FB6903F02003002B00F00D
:1043D000AA80BB6903F04003002B23D07B6893F8CD
:1043E0005130DBB2032B11D07B685B6D43F00402CC
:1043F0007B685A6500237B617B681B68DB687B6197
:104400007B681B689B687B617B690BE000233B61D9
:104410007B681B68DB683B617B681B689B683B6152
:104420003B6980E0BB6903F02003002B14D07B685C
:104430005B6D43F001027B685A650023FB607B687B
:104440001B689B68FB607B681B681A687B681B683D
:1044500022F040021A60FB68BB6903F48073002BF2
:104460000CD07B685B6D43F008027B685A650023C3
:10447000BB607B681B689B68BB60BB687B685B6DCF
:10448000002B4FD07B681B685A687B681B6822F042
:10449000E0025A607B68012283F85120FB6903F037
:1044A0000203002B04D1FB6903F00103002B34D07D
:1044B0007B681B685A687B681B6822F003025A609D
:1044C0007B68DB6C002B11D07B68DB6C174A1A65AC
:1044D0007B68DB6C1846FEF705FC0346002B05D015
:1044E0007B685B6D43F040027B685A657B689B6C20
:1044F000002B16D07B689B6C0C4A1A657B689B6C02
:104500001846FEF7EFFB0346002B0AD07B685B6D75
:1045100043F040027B685A6503E0786800F012F8C7
:1045200000E000BF00BF2037BD4680BD5D460008EB
:1045300080B483B000AF786000BF0C37BD465DF833
:10454000047B704780B483B000AF786000BF0C3745
:10455000BD465DF8047B704780B586B000AF7860DB
:104560007B689B6B7B61FEF705F938617B681B6894
:104570001B6803F48073B3F5807F3BD07B691B68B5
:104580005A687B691B6822F020025A607B691B68AD
:104590005A687B691B6822F002025A603A696421FA
:1045A000786900F0F7F80346002B05D07B695B6D56
:1045B00043F020027B695A657B699B68002B0AD116
:1045C0000023FB607B691B68DB68FB607B691B6801
:1045D0009B68FB60FB687B690022DA867B690122AD
:1045E00083F851207B695B6D002B03D07869FFF75E
:1045F000A9FF02E07869FCF7B7FD1837BD4680BD1A
:1046000080B584B000AF78607B689B6BFB60F86816
:10461000FFF78EFF00BF1037BD4680BD80B584B068
:1046200000AF78607B689B6BFB60FB681B685A6817
:10463000FB681B6822F003025A60FB685B6D43F065
:104640001002FB685A65FB68012283F85120F86864
:10465000FFF778FF00BF1037BD4680BD80B584B03E
:1046600000AF78607B689B6BFB60FB680022DA8799
:10467000FB680022DA86F868FFF764FF00BF103796
:10468000BD4680BD80B588B000AFF860B9603B60C2
:104690001346FB71FEF76EF80246BB6A9B1A3A6836
:1046A0001344FB61FEF766F8B861394B1B685B0188
:1046B0001B0DFA6902FB03F37B6154E03B68B3F125
:1046C000FF3F50D0FEF756F80246BB69D31AFA698D
:1046D0009A4202D9FB69002B3DD1FB681B685A68DE
:1046E000FB681B6822F0E0025A60FB685B68B3F568
:1046F000827F11D1FB689B68B3F5004F04D0FB6843
:104700009B68B3F5806F07D1FB681B681A68FB686C
:104710001B6822F040021A60FB689B6AB3F5005FD9
:104720000FD1FB681B681A68FB681B6822F40052F3
:104730001A60FB681B681A68FB681B6842F4005229
:104740001A60FB68012283F85120FB68002283F87D
:104750005020032317E07B69002B01D10023FB616C
:104760007B69013B7B61FB681B689A68BB681340EF
:10477000BA689A420CBF01230023DBB21A46FB79C8
:104780009A429BD1002318462037BD4680BD00BF0A
:104790000800002080B588B002AFF860B9607A6088
:1047A0007B680093BB6801220221F868FFF76AFF6B
:1047B0000346002B07D0FB685B6D43F02002FB68CB
:1047C0005A65032332E01B4B1B681B4AA2FB0323E1
:1047D0005B0D4FF47A7202FB03F37B61FB685B684D
:1047E000B3F5827F12D17B680093BB6800228021E1
:1047F000F868FFF747FF0346002B16D0FB685B6D98
:1048000043F02002FB685A6503230FE07B69002B0D
:104810000AD07B69013B7B61FB681B689B6803F0E6
:104820008003802BF2D000E000BF00231846183729
:10483000BD4680BD08000020819F5E1680B582B015
:1048400000AF78607B68002B01D1012341E07B68D9
:1048500093F83D30DBB2002B06D17B68002283F851
:104860003C207868FDF720FD7B68022283F83D201C
:104870007B681A687B6804331946104600F05EF9BD
:104880007B68012283F846207B68012283F83E2062
:104890007B68012283F83F207B68012283F8402057
:1048A0007B68012283F841207B68012283F8422043
:1048B0007B68012283F843207B68012283F844202F
:1048C0007B68012283F845207B68012283F83D2024
:1048D000002318460837BD4680BD000080B485B06F
:1048E00000AF78607B6893F83D30DBB2012B01D0DC
:1048F000012346E07B68022283F83D207B681B6829
:10490000234A934222D07B681B68B3F1804F1DD0AD
:104910007B681B681F4A934218D07B681B681E4A3D
:10492000934213D07B681B681C4A93420ED07B686D
:104930001B681B4A934209D07B681B68194A934243
:1049400004D07B681B68184A934211D17B681B68AE
:104950009B6803F00703FB60FB68062B10D07B68A5
:104960001B681A687B681B6842F001021A6007E046
:104970007B681B681A687B681B6842F001021A603A
:10498000002318461437BD465DF8047B704700BF0E
:10499000000001400004004000080040000C0040FE
:1049A00000040140004001400018004080B584B080
:1049B00000AF786039600023FB737B6893F83C306C
:1049C000012B01D10223B4E07B68012283F83C2053
:1049D0007B68022283F83D207B681B689B68BB6074
:1049E000BB6823F07703BB60BB6823F47F43BB60E5
:1049F0007B681B68BA689A603B681B68B3F5005F08
:104A00003ED0B3F5005F00F28780B3F5805F00F021
:104A10008680B3F5805F7FD8702B1AD0702B7BD83F
:104A2000602B50D0602B77D8502B3CD0502B73D8B4
:104A3000402B58D0402B6FD8302B64D0302B6BD804
:104A4000202B60D0202B67D8002B5CD0102B5AD0A5
:104A500062E07B6818683B6899683B685A683B6805
:104A6000DB6800F091F97B681B689B68BB60BB68E2
:104A700043F07703BB607B681B68BA689A604FE0BD
:104A80007B6818683B6899683B685A683B68DB68D4
:104A900000F07AF97B681B689A687B681B6842F4AF
:104AA00080429A603CE07B6818683B6859683B68C4
:104AB000DB681A4600F0EEF87B681B685021184648
:104AC00000F047F92CE07B6818683B6859683B6840
:104AD000DB681A4600F00DF97B681B6860211846F8
:104AE00000F037F91CE07B6818683B6859683B6840
:104AF000DB681A4600F0CEF87B681B684021184638
:104B000000F027F90CE07B681A683B681B681946BF
:104B1000104600F01EF903E00123FB7300E000BF24
:104B20007B68012283F83D207B68002283F83C20CB
:104B3000FB7B18461037BD4680BD000080B485B0B1
:104B400000AF786039607B681B68FB607B68464A11
:104B5000934213D07B68B3F1804F0FD07B68434AF8
:104B600093420BD07B68424A934207D07B68414A0C
:104B7000934203D07B68404A934208D1FB6823F0FC
:104B80007003FB603B685B68FA681343FB607B68FB
:104B9000354A93422BD07B68B3F1804F27D07B6896
:104BA000324A934223D07B68314A93421FD07B68BC
:104BB000304A93421BD07B682F4A934217D07B68C0
:104BC0002E4A934213D07B682D4A93420FD07B68C4
:104BD0002C4A93420BD07B682B4A934207D07B68C8
:104BE0002A4A934203D07B68294A934208D1FB6842
:104BF00023F44073FB603B68DB68FA681343FB6097
:104C0000FB6823F080023B685B691343FB607B68B1
:104C1000FA681A603B689A687B68DA623B681A68CF
:104C20007B689A627B68104A934203D07B68124A81
:104C3000934203D13B681A697B681A637B6801223F
:104C40005A617B681B6903F00103012B05D17B6866
:104C50001B6923F001027B681A6100BF1437BD464F
:104C60005DF8047B704700BF000001400004004075
:104C700000080040000C00400004014000400140DA
:104C8000004401400048014000180040001C004062
:104C90000020004080B487B000AFF860B9607A604F
:104CA000FB681B6A7B61FB681B6A23F00102FB68DF
:104CB0001A62FB689B693B613B6923F0F0033B612F
:104CC0007B681B013A6913433B617B6923F00A034C
:104CD0007B617A69BB6813437B61FB683A699A61BF
:104CE000FB687A691A6200BF1C37BD465DF8047B19
:104CF000704780B487B000AFF860B9607A60FB6835
:104D00001B6A7B61FB681B6A23F01002FB681A6256
:104D1000FB689B693B613B6923F470433B617B68A3
:104D20001B033A6913433B617B6923F0A0037B615A
:104D3000BB681B017A6913437B61FB683A699A611E
:104D4000FB687A691A6200BF1C37BD465DF8047BB8
:104D5000704780B485B000AF786039607B689B682D
:104D6000FB60FB6823F07003FB603A68FB68134349
:104D700043F00703FB607B68FA689A6000BF143752
:104D8000BD465DF8047B704780B487B000AFF86023
:104D9000B9607A603B60FB689B687B617B6923F448
:104DA0007F437B613B681A027B681A43BB681343ED
:104DB0007A6913437B61FB687A699A6000BF1C378C
:104DC000BD465DF8047B704780B485B000AF786065
:104DD00039607B6893F83C30012B01D102235AE003
:104DE0007B68012283F83C207B68022283F83D2007
:104DF0007B681B685B68FB607B681B689B68BB60AB
:104E0000FB6823F07003FB603B681B68FA68134380
:104E1000FB607B681B68FA685A607B681B68214AE4
:104E2000934222D07B681B68B3F1804F1DD07B6812
:104E30001B681D4A934218D07B681B681B4A93422B
:104E400013D07B681B681A4A93420ED07B681B689C
:104E5000184A934209D07B681B68174A934204D0D2
:104E60007B681B68154A93420CD1BB6823F0800312
:104E7000BB603B685B68BA681343BB607B681B68B8
:104E8000BA689A607B68012283F83D207B68002223
:104E900083F83C20002318461437BD465DF8047B98
:104EA000704700BF000001400004004000080040BF
:104EB000000C004000040140004001400018004088
:104EC00080B582B000AF78607B68002B01D10123F0
:104ED00042E07B6893F84130DBB2002B06D17B685F
:104EE000002283F840207868FDF700FA7B682422CE
:104EF00083F841207B681B68DA687B681B6822F4B2
:104F00000052DA60786800F0BDFD7B681B681A69A2
:104F10007B681B6822F490421A617B681B685A699F
:104F20007B681B6822F02A025A617B681B68DA687A
:104F30007B681B6842F40052DA607B6800225A6486
:104F40007B68202283F841207B68202283F842205E
:104F50007B6800225A63002318460837BD4680BD8F
:104F600080B58AB002AFF860B9603B601346FB8041
:104F700000237B61FB6893F84130DBB2202B75D1B5
:104F8000BB68002B02D0FB88002B01D101236EE00F
:104F9000FB6800225A64FB68212283F84120FDF758
:104FA000E9FB7861FB68FA889A84FB68FA88DA84FE
:104FB000FB689B68B3F5805F08D1FB681B69002B19
:104FC00004D10023FB61BB68BB6103E0BB68FB61EC
:104FD0000023BB612EE03B6800937B6900228021A7
:104FE000F86800F01FFB0346002B05D0FB68202269
:104FF00083F8412003233AE0FB69002B0BD1BB6906
:105000001B881A46FB681B68C2F308025A60BB691A
:105010000233BB6107E0FB691A78FB681B685A60C2
:10502000FB690133FB61FB68DB8C9BB2013B9AB2ED
:10503000FB68DA84FB68DB8C9BB2002BCBD13B682E
:1050400000937B6900224021F86800F0EBFA0346E8
:10505000002B05D0FB68202283F84120032306E0C3
:10506000FB68202283F84120002300E00223184639
:105070002037BD4680BD80B584B000AFF860B96010
:105080001346FB80FB6893F84230DBB2202B12D131
:10509000BB68002B02D0FB88002B01D101230BE061
:1050A000FB6800221A63FB881A46B968F86800F0AA
:1050B00012FB034600E0022318461037BD4680BDB0
:1050C00080B5BAB000AF78607B681B681B68C7F812
:1050D000E4307B681B68DB68C7F8E0307B681B68DE
:1050E0005B69C7F8DC300023C7F8D8300023C7F865
:1050F000D430D7F8E43003F00F03C7F8D830D7F82E
:10510000D830002B0FD1D7F8E43003F02003002B68
:1051100009D0D7F8E03003F02003002B03D07868E3
:1051200000F0F2FB5BE2D7F8D830002B00F0DE8015
:10513000D7F8DC3003F00103002B06D1D7F8E030BC
:1051400003F49073002B00F0D180D7F8E43003F023
:105150000103002B0BD0D7F8E03003F48073002B51
:1051600005D07B685B6C43F001027B685A64D7F81A
:10517000E43003F00403002B0BD0D7F8DC3003F04D
:105180000103002B05D07B685B6C43F002027B6857
:105190005A64D7F8E43003F00203002B0BD0D7F8A1
:1051A000DC3003F00103002B05D07B685B6C43F01F
:1051B00004027B685A64D7F8E43003F00803002B3C
:1051C00011D0D7F8E03003F02003002B05D1D7F839
:1051D000DC3003F00103002B05D07B685B6C43F0EF
:1051E00008027B685A647B685B6C002B00F0F281DC
:1051F000D7F8E43003F02003002B08D0D7F8E030D4
:1052000003F02003002B02D0786800F07DFB7B6860
:105210001B685B6903F04003402B0CBF0123002394
:10522000DBB2C7F8D4307B685B6C03F00803002B5B
:1052300003D1D7F8D430002B4FD0786800F085FA2E
:105240007B681B685B6903F04003402B41D17B689E
:105250001B681433C7F89C30D7F89C3053E8003FE4
:10526000C7F89830D7F8983023F04003C7F8D0300B
:105270007B681B681433D7F8D020C7F8A820C7F87C
:10528000A430D7F8A410D7F8A82041E80023C7F825
:10529000A030D7F8A030002BD9D17B68DB6B002B76
:1052A00013D07B68DB6B7E4A1A657B68DB6B184624
:1052B000FDF718FD0346002B16D07B68DB6B1B6DDA
:1052C0007A68D26B104698470EE0786800F094F93F
:1052D0000AE0786800F090F906E0786800F08CF950
:1052E0007B6800225A6475E100BF73E17B681B6B29
:1052F000012B40F04F81D7F8E43003F01003002B6E
:1053000000F04881D7F8E03003F01003002B00F0E4
:1053100041810023BB607B681B681B68BB607B68A6
:105320001B685B68BB60BB687B681B685B6903F0DC
:105330004003402B40F0B6807B68DB6B1B685B68EA
:10534000A7F8BE30B7F8BE30002B00F045817B686F
:105350009B8DB7F8BE209A4280F03E817B68B7F8FB
:10536000BE20DA857B68DB6BDB69B3F5807F00F0FC
:1053700088807B681B680C33C7F88830D7F8883082
:1053800053E8003FC7F88430D7F8843023F48073A3
:10539000C7F8B8307B681B680C33D7F8B820C7F85B
:1053A0009420C7F89030D7F89010D7F8942041E8AF
:1053B0000023C7F88C30D7F88C30002BD9D17B680C
:1053C0001B6814337B677B6F53E8003F3B673B6F81
:1053D00023F00103C7F8B4307B681B681433D7F897
:1053E000B420C7F88020FB67F96FD7F8802041E828
:1053F0000023BB67BB6F002BE1D17B681B681433B4
:105400003B663B6E53E8003FFB65FB6D23F04003BA
:10541000C7F8B0307B681B681433D7F8B020FA6641
:10542000BB66B96EFA6E41E800237B667B6E002B8B
:10543000E3D17B68202283F842207B6800221A6334
:105440007B681B680C33FB64FB6C53E8003FBB6458
:10545000BB6C23F01003C7F8AC307B681B680C33BF
:10546000D7F8AC20BA657B65796DBA6D41E8002349
:105470003B653B6D002BE3D17B68DB6B1846FDF78A
:10548000C1FB7B6802225A637B689A8D7B68DB8D47
:105490009BB2D31A9BB21946786800F0B7F89BE02C
:1054A000115800087B689A8D7B68DB8D9BB2D31AFC
:1054B000A7F8CE307B68DB8D9BB2002B00F08E808E
:1054C000B7F8CE30002B00F089807B681B680C3366
:1054D000BB63BB6B53E8003F7B637B6B23F4907330
:1054E000C7F8C8307B681B680C33D7F8C8207A64CB
:1054F0003B64396C7A6C41E80023FB63FB6B002B47
:10550000E3D17B681B6814337B627B6A53E8003FFE
:105510003B623B6A23F00103C7F8C4307B681B6819
:105520001433D7F8C4203A63FB62F96A3A6B41E856
:105530000023BB62BB6A002BE3D17B68202283F887
:1055400042207B6800221A637B681B680C333B6136
:105550003B6953E8003FFB60FB6823F01003C7F88A
:10556000C0307B681B680C33D7F8C020FA61BB6180
:10557000B969FA6941E800237B617B69002BE3D1BB
:105580007B6802225A63B7F8CE301946786800F07B
:105590003DF823E0D7F8E43003F08003002B09D076
:1055A000D7F8E03003F08003002B03D0786800F0D8
:1055B00043F914E0D7F8E43003F04003002B0ED099
:1055C000D7F8E03003F04003002B08D0786800F0F3
:1055D00083F904E000BF02E000BF00E000BFE8374D
:1055E000BD4680BD80B483B000AF786000BF0C378B
:1055F000BD465DF8047B704780B483B000AF78602F
:1056000000BF0C37BD465DF8047B704780B483B0A3
:1056100000AF78600B467B8000BF0C37BD465DF85D
:10562000047B704780B586B000AFF860B9603B601E
:105630001346FB713BE03B6AB3F1FF3F37D0FDF708
:1056400099F802463B68D31A3A6A9A4202D33B6AF7
:10565000002B01D103233AE0FB681B68DB6803F0F1
:105660000403002B23D0BB68802B20D0BB68402BC9
:105670001DD0FB681B681B6803F00803082B16D1BC
:1056800000237B61FB681B681B687B61FB681B68F0
:105690005B687B617B69F86800F057F8FB6808225B
:1056A0005A64FB68002283F8402001230FE0FB6866
:1056B0001B681A68BB681340BA689A420CBF012382
:1056C0000023DBB21A46FB799A42B4D00023184675
:1056D0001837BD4680BD80B485B000AFF860B960B2
:1056E0001346FB80FB68BA689A62FB68FA889A8561
:1056F000FB68FA88DA85FB6800225A64FB6822227C
:1057000083F84220FB681B69002B07D0FB681B68ED
:10571000DA68FB681B6842F48072DA60FB681B6819
:105720005A69FB681B6842F001025A61FB681B68FA
:10573000DA68FB681B6842F02002DA600023184632
:105740001437BD465DF8047B704780B495B000AF58
:1057500078607B681B680C337B637B6B53E8003F8E
:105760003B633B6B23F49073FB647B681B680C33D7
:10577000FA6C3A64FB63F96B3A6C41E80023BB6353
:10578000BB6B002BE5D17B681B6814333B623B6A23
:1057900053E8003FFB61FB6923F00103BB647B68B6
:1057A0001B681433BA6CFA62BB62B96AFA6A41E8E0
:1057B00000237B627B6A002BE5D17B681B6B012B8E
:1057C00019D17B681B680C33FB60FB6853E8003F12
:1057D000BB60BB6823F010037B647B681B680C33E1
:1057E0007A6CBA617B617969BA6941E800233B61EF
:1057F0003B69002BE5D17B68202283F842207B683F
:1058000000221A6300BF5437BD465DF8047B704721
:1058100080B584B000AF78607B689B6BFB60FB68F1
:105820000022DA85FB680022DA84F868FFF7E4FEDC
:1058300000BF1037BD4680BD80B485B000AF786032
:105840007B6893F84130DBB2212B3ED17B689B68AB
:10585000B3F5805F14D17B681B69002B10D17B6886
:105860001B6AFB60FB681B881A467B681B68C2F3D7
:1058700008025A607B681B6A9A1C7B681A6208E0FF
:105880007B681B6A591C7A6811621A787B681B68EE
:105890005A607B68DB8C9BB2013B9BB27A681946ED
:1058A000D184002B0FD17B681B68DA687B681B688A
:1058B00022F08002DA607B681B68DA687B681B680C
:1058C00042F04002DA60002300E002231846143759
:1058D000BD465DF8047B704780B582B000AF78604C
:1058E0007B681B68DA687B681B6822F04002DA601C
:1058F0007B68202283F841207868FFF773FE00233D
:1059000018460837BD4680BD80B58CB000AF7860C2
:105910007B6893F84230DBB2222B40F0AE807B688C
:105920009B68B3F5805F17D17B681B69002B13D18F
:105930000023FB627B689B6ABB627B681B685B68B9
:105940009BB2C3F308039AB2BB6A1A807B689B6A56
:105950009A1C7B689A6226E07B689B6AFB62002344
:10596000BB627B689B68B3F5805F07D07B689B68F0
:10597000002B0AD17B681B69002B06D17B681B6852
:105980005B68DAB2FB6A1A7008E07B681B685B68C8
:10599000DBB203F07F03DAB2FB6A1A707B689B6AA2
:1059A0005A1C7B689A627B68DB8D9BB2013B9BB281
:1059B0007A681946D185002B5DD17B681B68DA684F
:1059C0007B681B6822F02002DA607B681B68DA685B
:1059D0007B681B6822F48072DA607B681B685A69F6
:1059E0007B681B6822F001025A617B68202283F8E1
:1059F00042207B6800225A637B681B6B012B35D1E8
:105A00007B6800221A637B681B680C337B617B69AF
:105A100053E8003F3B613B6923F010037B627B68E6
:105A20001B680C337A6A3A62FB61F9693A6A41E8A9
:105A30000023BB61BB69002BE5D17B681B681B6839
:105A400003F01003102B0AD10023FB607B681B6856
:105A50001B68FB607B681B685B68FB60FB687B689E
:105A60009B8D19467868FFF7D1FD02E07868FCF756
:105A70004DFB002302E0002300E0022318463037EC
:105A8000BD4680BD2DE9B04FC0B000AFC7F8F400EF
:105A9000D7F8F4301B681B6923F44050D7F8F43072
:105AA000D968D7F8F4301A6840EA01031361D7F8CF
:105AB000F4309A68D7F8F4301B691A43D7F8F430F9
:105AC0005B691A43D7F8F430DB691343C7F8F83041
:105AD000D7F8F4301B68DB6823F4164121F00C0181
